:10008F00021400060218005B020A004F02120066FB
:10009F000210006D0216007D020C00070208007F9F
:0400AF00020E006FCE
:1000D600EF4E600F7D027CEFDCFEDDFCEF1F70F063
:0300E6001E80ED8C
:0100E90022F4
:1000B400D2A4C2A3C2A28509807F0A7E001200D600
:1000C400D2A4C2A3D2A28515807F0A7E001200D6D4
:0200D40080DECC
:03000000020003F8
:0C000300787FE4F6D8FD75811902004AF0
:10000F000200B4E493A3F8E493A34003F68001F253
:10001F0008DFF48029E493A3F85407240CC8C333F2
:10002F00C4540F4420C8834004F456800146F6DFC1
:10003F00E4800B010204081020408090008FE47EC2
:10004F00019360BCA3FF543F30E509541FFEE493B6
:10005F00A360010ECF54C025E060A840B8E493A37D
:10006F00FAE493A3F8E493A3C8C582C8CAC583CAA8
:10007F00F0A3C8C582C8CAC583CADFE9DEE780BE60
:0100B300004C
:00000001FF
